{
  "_format": "hh-sol-artifact-1",
  "contractName": "GameContract",
  "sourceName": "contracts/Game.sol",
  "abi": [
    {
      "inputs": [],
      "stateMutability": "nonpayable",
      "type": "constructor"
    },
    {
      "anonymous": false,
      "inputs": [
        {
          "indexed": false,
          "internalType": "enum GameContract.GameOutcome",
          "name": "",
          "type": "uint8"
        }
      ],
      "name": "GetGameOutcome",
      "type": "event"
    },
    {
      "inputs": [
        {
          "internalType": "string",
          "name": "a",
          "type": "string"
        },
        {
          "internalType": "string",
          "name": "b",
          "type": "string"
        }
      ],
      "name": "compareStrings",
      "outputs": [
        {
          "internalType": "bool",
          "name": "",
          "type": "bool"
        }
      ],
      "stateMutability": "view",
      "type": "function"
    },
    {
      "inputs": [],
      "name": "deposit",
      "outputs": [],
      "stateMutability": "payable",
      "type": "function"
    },
    {
      "inputs": [
        {
          "internalType": "string",
          "name": "gameCode",
          "type": "string"
        },
        {
          "internalType": "string",
          "name": "afterMatchDataURI",
          "type": "string"
        },
        {
          "internalType": "string",
          "name": "result",
          "type": "string"
        }
      ],
      "name": "endGame",
      "outputs": [],
      "stateMutability": "nonpayable",
      "type": "function"
    },
    {
      "inputs": [
        {
          "internalType": "string",
          "name": "",
          "type": "string"
        }
      ],
      "name": "games",
      "outputs": [
        {
          "internalType": "address",
          "name": "playerOne",
          "type": "address"
        },
        {
          "internalType": "address",
          "name": "playerTwo",
          "type": "address"
        },
        {
          "internalType": "uint256",
          "name": "stake",
          "type": "uint256"
        },
        {
          "internalType": "string",
          "name": "gameCode",
          "type": "string"
        },
        {
          "internalType": "string",
          "name": "beforeMatchDataURI",
          "type": "string"
        },
        {
          "internalType": "string",
          "name": "afterMatchDataURI",
          "type": "string"
        },
        {
          "internalType": "enum GameContract.GameStatus",
          "name": "status",
          "type": "uint8"
        },
        {
          "internalType": "enum GameContract.GameOutcome",
          "name": "outcome",
          "type": "uint8"
        }
      ],
      "stateMutability": "view",
      "type": "function"
    },
    {
      "inputs": [
        {
          "internalType": "string",
          "name": "gameCode",
          "type": "string"
        }
      ],
      "name": "getGameDetails",
      "outputs": [
        {
          "internalType": "string",
          "name": "URI",
          "type": "string"
        }
      ],
      "stateMutability": "view",
      "type": "function"
    },
    {
      "inputs": [
        {
          "internalType": "address",
          "name": "playerAddress",
          "type": "address"
        }
      ],
      "name": "getPlayerBalance",
      "outputs": [
        {
          "internalType": "uint256",
          "name": "playerBalance",
          "type": "uint256"
        }
      ],
      "stateMutability": "view",
      "type": "function"
    },
    {
      "inputs": [
        {
          "internalType": "enum GameContract.GameOutcome",
          "name": "",
          "type": "uint8"
        }
      ],
      "name": "outcomes",
      "outputs": [
        {
          "internalType": "string",
          "name": "",
          "type": "string"
        }
      ],
      "stateMutability": "view",
      "type": "function"
    },
    {
      "inputs": [
        {
          "internalType": "string",
          "name": "gameCode",
          "type": "string"
        }
      ],
      "name": "participateGame",
      "outputs": [],
      "stateMutability": "nonpayable",
      "type": "function"
    },
    {
      "inputs": [
        {
          "internalType": "address",
          "name": "",
          "type": "address"
        }
      ],
      "name": "playerBalances",
      "outputs": [
        {
          "internalType": "uint256",
          "name": "",
          "type": "uint256"
        }
      ],
      "stateMutability": "view",
      "type": "function"
    },
    {
      "inputs": [
        {
          "internalType": "string",
          "name": "gameCode",
          "type": "string"
        },
        {
          "internalType": "string",
          "name": "beforeMatchDataURI",
          "type": "string"
        },
        {
          "internalType": "address",
          "name": "opponent",
          "type": "address"
        },
        {
          "internalType": "uint256",
          "name": "stake",
          "type": "uint256"
        }
      ],
      "name": "startGame",
      "outputs": [],
      "stateMutability": "nonpayable",
      "type": "function"
    },
    {
      "inputs": [],
      "name": "withdraw",
      "outputs": [],
      "stateMutability": "nonpayable",
      "type": "function"
    }
  ],
  "bytecode": "0x60806040523480156200001157600080fd5b5060016000908155604080518082019091526004808252636472617760e01b60208084019182529380529252516200006b917f17ef568e3e12ab5b9c7254a8d58478811de00f9e6eb34345acd53bf8fd09d3ec916200012a565b50604080518082019091526009815268706c617965724f6e6560b81b60208083019182526001600052600490529051620000c7917fabd6e7cb50984ff9c2f3e18a2660c3353dadf4e3291deeb275dae2cd1e44fe05916200012a565b50604080518082019091526009815268706c6179657254776f60b81b6020808301918252600260005260049052905162000123917f91da3fd0782e51c6b3986e9e672fd566868e71f3dbc2d6c2cd6fbb3e361af2a7916200012a565b506200020d565b8280546200013890620001d0565b90600052602060002090601f0160209004810192826200015c5760008555620001a7565b82601f106200017757805160ff1916838001178555620001a7565b82800160010185558215620001a7579182015b82811115620001a75782518255916020019190600101906200018a565b50620001b5929150620001b9565b5090565b5b80821115620001b55760008155600101620001ba565b600181811c90821680620001e557607f821691505b602082108114156200020757634e487b7160e01b600052602260045260246000fd5b50919050565b6117a0806200021d6000396000f3fe60806040526004361061009c5760003560e01c80636d20931a116100645780636d20931a1461014e5780637b38314c14610182578063bed34bba146101bd578063d0e30db0146101ed578063d43077e6146101f5578063e2734c931461021557600080fd5b80630a356624146100a15780632ab9cc30146100c35780633b80e6ca146100f95780633ccfd60b146101195780633e42bb331461012e575b600080fd5b3480156100ad57600080fd5b506100c16100bc3660046114fb565b61024b565b005b3480156100cf57600080fd5b506100e36100de3660046113e6565b610773565b6040516100f09190611651565b60405180910390f35b34801561010557600080fd5b506100c16101143660046113e6565b6108a9565b34801561012557600080fd5b506100c1610b07565b34801561013a57600080fd5b506100c1610149366004611482565b610c59565b34801561015a57600080fd5b5061016e6101693660046113e6565b610ec3565b6040516100f09897969594939291906115c7565b34801561018e57600080fd5b506101af61019d3660046113ad565b60026020526000908152604090205481565b6040519081526020016100f0565b3480156101c957600080fd5b506101dd6101d8366004611421565b6110bf565b60405190151581526020016100f0565b6100c1611118565b34801561020157600080fd5b506100e36102103660046113c7565b6111ac565b34801561022157600080fd5b506101af6102303660046113ad565b6001600160a01b031660009081526002602052604090205490565b600160038460405161025d91906115ab565b9081526040519081900360200190206006015460ff16600281111561029257634e487b7160e01b600052602160045260246000fd5b146102f25760405162461bcd60e51b815260206004820152602560248201527f4d6174636820646964206e6f742073746172746564206f7220696e76616c696460448201526420636f646560d81b60648201526084015b60405180910390fd5b6103b8816004600060025b600281111561031c57634e487b7160e01b600052602160045260246000fd5b81526020019081526020016000208054610335906116e2565b80601f0160208091040260200160405190810160405280929190818152602001828054610361906116e2565b80156103ae5780601f10610383576101008083540402835291602001916103ae565b820191906000526020600020905b81548152906001019060200180831161039157829003601f168201915b50505050506110bf565b806103cc57506103cc8160046000806102fd565b806103e157506103e1816004600060016102fd565b61041e5760405162461bcd60e51b815260206004820152600e60248201526d125b9d985b1a590814995cdd5b1d60921b60448201526064016102e9565b600260038460405161043091906115ab565b908152604051908190036020019020600601805460ff1916600183600281111561046a57634e487b7160e01b600052602160045260246000fd5b02179055508160038460405161048091906115ab565b908152602001604051809103902060050190805190602001906104a4929190611271565b5060006003846040516104b791906115ab565b908152604051908190036020018120546001600160a01b031691506000906003906104e39087906115ab565b908152604051908190036020018120600101546001600160a01b031691506000906003906105129088906115ab565b9081526040519081900360200190206002015490506105358460046000806102fd565b156105fd57600060038760405161054c91906115ab565b908152604051908190036020019020600601805461ff00191661010083600281111561058857634e487b7160e01b600052602160045260246000fd5b02179055506001600160a01b0383166000908152600260205260409020546105b09082611246565b6001600160a01b0380851660009081526002602052604080822093909355908416815220546105df9082611246565b6001600160a01b03831660009081526002602052604090205561076b565b61060c846004600060016102fd565b156106b657600160038760405161062391906115ab565b908152604051908190036020019020600601805461ff00191661010083600281111561065f57634e487b7160e01b600052602160045260246000fd5b02179055506000610671826002611259565b6001600160a01b0385166000908152600260205260409020549091506106979082611246565b6001600160a01b0385166000908152600260205260409020555061076b565b6106c5846004600060026102fd565b1561076b5760026003876040516106dc91906115ab565b908152604051908190036020019020600601805461ff00191661010083600281111561071857634e487b7160e01b600052602160045260246000fd5b0217905550600061072a826002611259565b6001600160a01b0384166000908152600260205260409020549091506107509082611246565b6001600160a01b038416600090815260026020526040902055505b505050505050565b6060600060038360405161078791906115ab565b9081526040519081900360200190206006015460ff1660028111156107bc57634e487b7160e01b600052602160045260246000fd5b146107f85760405162461bcd60e51b815260206004820152600c60248201526b496e76616c696420436f646560a01b60448201526064016102e9565b60038260405161080891906115ab565b90815260200160405180910390206004018054610824906116e2565b80601f0160208091040260200160405190810160405280929190818152602001828054610850906116e2565b801561089d5780601f106108725761010080835404028352916020019161089d565b820191906000526020600020905b81548152906001019060200180831161088057829003601f168201915b50505050509050919050565b336001600160a01b03166003826040516108c391906115ab565b908152604051908190036020019020600101546001600160a01b0316146109375760405162461bcd60e51b815260206004820152602260248201527f596f7520617265206e6f7420506c61796572203220666f7220746869732067616044820152616d6560f01b60648201526084016102e9565b600060038260405161094991906115ab565b9081526040519081900360200190206006015460ff16600281111561097e57634e487b7160e01b600052602160045260246000fd5b146109e85760405162461bcd60e51b815260206004820152603460248201527f47616d65206e6f742073746172746564206f722068617320616c7265616479206044820152733132b2b7103830b93a34b1b4b830ba32b21034b760611b60648201526084016102e9565b60006003826040516109fa91906115ab565b908152602001604051809103902060020154905060026000336001600160a01b03166001600160a01b0316815260200190815260200160002054811115610a835760405162461bcd60e51b815260206004820152601d60248201527f506c617965722066756e64732061726520696e73756666696369656e7400000060448201526064016102e9565b33600090815260026020526040902054610a9d9082611265565b33600090815260026020526040908190209190915551600190600390610ac49085906115ab565b908152604051908190036020019020600601805460ff19166001836002811115610afe57634e487b7160e01b600052602160045260246000fd5b02179055505050565b60026000541415610b5a5760405162461bcd60e51b815260206004820152601f60248201527f5265656e7472616e637947756172643a207265656e7472616e742063616c6c0060448201526064016102e9565b60026000818155338152602091909152604090205480610ba95760405162461bcd60e51b815260206004820152600a6024820152694e6f2062616c616e636560b01b60448201526064016102e9565b336000818152600260205260408082208290555190919083908381818185875af1925050503d8060008114610bfa576040519150601f19603f3d011682016040523d82523d6000602084013e610bff565b606091505b5050905080610c505760405162461bcd60e51b815260206004820152601760248201527f7769746864726177206661696c656420746f2073656e6400000000000000000060448201526064016102e9565b50506001600055565b6001600160a01b03821615801590610c7a57506001600160a01b0382163314155b610cc65760405162461bcd60e51b815260206004820152601f60248201527f456e74657220612076616c6964206f70706f6e656e742061646465726573730060448201526064016102e9565b33600090815260026020526040902054811115610d255760405162461bcd60e51b815260206004820152601e60248201527f506c61796572732066756e64732061726520696e73756666696369656e74000060448201526064016102e9565b33600090815260026020526040902054610d3f9082611265565b336000908152600260205260409081902091909155518490600390610d659083906115ab565b90815260200160405180910390206003019080519060200190610d89929190611271565b5033600385604051610d9b91906115ab565b90815260405190819003602001812080546001600160a01b03939093166001600160a01b0319909316929092179091558290600390610ddb9087906115ab565b908152602001604051809103902060010160006101000a8154816001600160a01b0302191690836001600160a01b0316021790555080600385604051610e2191906115ab565b9081526020016040518091039020600201819055506000600385604051610e4891906115ab565b908152604051908190036020019020600601805460ff19166001836002811115610e8257634e487b7160e01b600052602160045260246000fd5b021790555082600385604051610e9891906115ab565b90815260200160405180910390206004019080519060200190610ebc929190611271565b5050505050565b8051808201602090810180516003808352938301929094019190912092905281546001830154600284015492840180546001600160a01b0393841695929093169392610f0e906116e2565b80601f0160208091040260200160405190810160405280929190818152602001828054610f3a906116e2565b8015610f875780601f10610f5c57610100808354040283529160200191610f87565b820191906000526020600020905b815481529060010190602001808311610f6a57829003601f168201915b505050505090806004018054610f9c906116e2565b80601f0160208091040260200160405190810160405280929190818152602001828054610fc8906116e2565b80156110155780601f10610fea57610100808354040283529160200191611015565b820191906000526020600020905b815481529060010190602001808311610ff857829003601f168201915b50505050509080600501805461102a906116e2565b80601f0160208091040260200160405190810160405280929190818152602001828054611056906116e2565b80156110a35780601f10611078576101008083540402835291602001916110a3565b820191906000526020600020905b81548152906001019060200180831161108657829003601f168201915b5050506006909301549192505060ff8082169161010090041688565b6000816040516020016110d291906115ab565b60405160208183030381529060405280519060200120836040516020016110f991906115ab565b6040516020818303038152906040528051906020012014905092915050565b600034116111805760405162461bcd60e51b815260206004820152602f60248201527f506c65617365204465706f73697420612076616c696420616d6f756e7420677260448201526e6561746572207468616e207a65726f60881b60648201526084016102e9565b3360009081526002602052604090205461119a9034611246565b33600090815260026020526040902055565b600460205260009081526040902080546111c5906116e2565b80601f01602080910402602001604051908101604052809291908181526020018280546111f1906116e2565b801561123e5780601f106112135761010080835404028352916020019161123e565b820191906000526020600020905b81548152906001019060200180831161122157829003601f168201915b505050505081565b60006112528284611664565b9392505050565b6000611252828461167c565b6000611252828461169b565b82805461127d906116e2565b90600052602060002090601f01602090048101928261129f57600085556112e5565b82601f106112b857805160ff19168380011785556112e5565b828001600101855582156112e5579182015b828111156112e55782518255916020019190600101906112ca565b506112f19291506112f5565b5090565b5b808211156112f157600081556001016112f6565b80356001600160a01b038116811461132157600080fd5b919050565b600082601f830112611336578081fd5b813567ffffffffffffffff8082111561135157611351611733565b604051601f8301601f19908116603f0116810190828211818310171561137957611379611733565b81604052838152866020858801011115611391578485fd5b8360208701602083013792830160200193909352509392505050565b6000602082840312156113be578081fd5b6112528261130a565b6000602082840312156113d8578081fd5b813560038110611252578182fd5b6000602082840312156113f7578081fd5b813567ffffffffffffffff81111561140d578182fd5b61141984828501611326565b949350505050565b60008060408385031215611433578081fd5b823567ffffffffffffffff8082111561144a578283fd5b61145686838701611326565b9350602085013591508082111561146b578283fd5b5061147885828601611326565b9150509250929050565b60008060008060808587031215611497578182fd5b843567ffffffffffffffff808211156114ae578384fd5b6114ba88838901611326565b955060208701359150808211156114cf578384fd5b506114dc87828801611326565b9350506114eb6040860161130a565b9396929550929360600135925050565b60008060006060848603121561150f578283fd5b833567ffffffffffffffff80821115611526578485fd5b61153287838801611326565b94506020860135915080821115611547578384fd5b61155387838801611326565b93506040860135915080821115611568578283fd5b5061157586828701611326565b9150509250925092565b600081518084526115978160208601602086016116b2565b601f01601f19169290920160200192915050565b600082516115bd8184602087016116b2565b9190910192915050565b6001600160a01b0389811682528816602082015260408101879052610100606082018190526000906115fb8382018961157f565b9050828103608084015261160f818861157f565b905082810360a0840152611623818761157f565b91505061162f84611749565b8360c083015261163e83611749565b8260e08301529998505050505050505050565b602081526000611252602083018461157f565b600082198211156116775761167761171d565b500190565b60008160001904831182151516156116965761169661171d565b500290565b6000828210156116ad576116ad61171d565b500390565b60005b838110156116cd5781810151838201526020016116b5565b838111156116dc576000848401525b50505050565b600181811c908216806116f657607f821691505b6020821081141561171757634e487b7160e01b600052602260045260246000fd5b50919050565b634e487b7160e01b600052601160045260246000fd5b634e487b7160e01b600052604160045260246000fd5b6003811061176757634e487b7160e01b600052602160045260246000fd5b5056fea2646970667358221220b272028350f280facdd80242ccc12dc564fbb888429fbeab17013d595d43956564736f6c63430008040033",
  "linkReferences": {},
  "deployedLinkReferences": {}
}