{
  "_format": "hh-sol-artifact-1",
  "contractName": "GameContract",
  "sourceName": "contracts/Game.sol",
  "abi": [
    {
      "anonymous": false,
      "inputs": [
        {
          "indexed": false,
          "internalType": "enum GameContract.GameOutcome",
          "name": "",
          "type": "uint8"
        }
      ],
      "name": "GetGameOutcome",
      "type": "event"
    },
    {
      "inputs": [],
      "name": "deposit",
      "outputs": [],
      "stateMutability": "payable",
      "type": "function"
    },
    {
      "inputs": [
        {
          "internalType": "string",
          "name": "gameCode",
          "type": "string"
        },
        {
          "internalType": "string",
          "name": "afterMatchDataURI",
          "type": "string"
        },
        {
          "internalType": "enum GameContract.GameOutcome",
          "name": "outcome",
          "type": "uint8"
        }
      ],
      "name": "endGame",
      "outputs": [],
      "stateMutability": "nonpayable",
      "type": "function"
    },
    {
      "inputs": [
        {
          "internalType": "string",
          "name": "",
          "type": "string"
        }
      ],
      "name": "games",
      "outputs": [
        {
          "internalType": "address",
          "name": "playerOne",
          "type": "address"
        },
        {
          "internalType": "address",
          "name": "playerTwo",
          "type": "address"
        },
        {
          "internalType": "uint256",
          "name": "stake",
          "type": "uint256"
        },
        {
          "internalType": "string",
          "name": "gameCode",
          "type": "string"
        },
        {
          "internalType": "string",
          "name": "beforeMatchDataURI",
          "type": "string"
        },
        {
          "internalType": "string",
          "name": "afterMatchDataURI",
          "type": "string"
        },
        {
          "internalType": "enum GameContract.GameStatus",
          "name": "status",
          "type": "uint8"
        },
        {
          "internalType": "enum GameContract.GameOutcome",
          "name": "outcome",
          "type": "uint8"
        }
      ],
      "stateMutability": "view",
      "type": "function"
    },
    {
      "inputs": [
        {
          "internalType": "string",
          "name": "gameCode",
          "type": "string"
        }
      ],
      "name": "getGameDetails",
      "outputs": [
        {
          "internalType": "string",
          "name": "URI",
          "type": "string"
        }
      ],
      "stateMutability": "view",
      "type": "function"
    },
    {
      "inputs": [
        {
          "internalType": "address",
          "name": "playerAddress",
          "type": "address"
        }
      ],
      "name": "getPlayerBalance",
      "outputs": [
        {
          "internalType": "uint256",
          "name": "playerBalance",
          "type": "uint256"
        }
      ],
      "stateMutability": "view",
      "type": "function"
    },
    {
      "inputs": [
        {
          "internalType": "string",
          "name": "gameCode",
          "type": "string"
        }
      ],
      "name": "participateGame",
      "outputs": [],
      "stateMutability": "nonpayable",
      "type": "function"
    },
    {
      "inputs": [
        {
          "internalType": "address",
          "name": "",
          "type": "address"
        }
      ],
      "name": "playerBalances",
      "outputs": [
        {
          "internalType": "uint256",
          "name": "",
          "type": "uint256"
        }
      ],
      "stateMutability": "view",
      "type": "function"
    },
    {
      "inputs": [
        {
          "internalType": "string",
          "name": "gameCode",
          "type": "string"
        },
        {
          "internalType": "string",
          "name": "beforeMatchDataURI",
          "type": "string"
        },
        {
          "internalType": "address",
          "name": "opponent",
          "type": "address"
        },
        {
          "internalType": "uint256",
          "name": "stake",
          "type": "uint256"
        }
      ],
      "name": "startGame",
      "outputs": [],
      "stateMutability": "nonpayable",
      "type": "function"
    },
    {
      "inputs": [],
      "name": "withdraw",
      "outputs": [],
      "stateMutability": "nonpayable",
      "type": "function"
    }
  ],
  "bytecode": "0x608060405234801561001057600080fd5b506001600055611425806100256000396000f3fe6080604052600436106100865760003560e01c80636d20931a116100595780636d20931a146101185780637b38314c1461014c578063d0e30db014610187578063de1b5b821461018f578063e2734c93146101af57600080fd5b80632ab9cc301461008b5780633b80e6ca146100c15780633ccfd60b146100e35780633e42bb33146100f8575b600080fd5b34801561009757600080fd5b506100ab6100a63660046110d8565b6101e5565b6040516100b891906112d6565b60405180910390f35b3480156100cd57600080fd5b506100e16100dc3660046110d8565b610320565b005b3480156100ef57600080fd5b506100e161057e565b34801561010457600080fd5b506100e1610113366004611113565b6106d0565b34801561012457600080fd5b506101386101333660046110d8565b61093a565b6040516100b898979695949392919061124c565b34801561015857600080fd5b506101796101673660046110be565b60026020526000908152604090205481565b6040519081526020016100b8565b6100e1610b36565b34801561019b57600080fd5b506100e16101aa36600461118c565b610bca565b3480156101bb57600080fd5b506101796101ca3660046110be565b6001600160a01b031660009081526002602052604090205490565b606060006003836040516101f99190611230565b9081526040519081900360200190206006015460ff16600281111561022e57634e487b7160e01b600052602160045260246000fd5b1461026f5760405162461bcd60e51b815260206004820152600c60248201526b496e76616c696420436f646560a01b60448201526064015b60405180910390fd5b60038260405161027f9190611230565b9081526020016040518091039020600401805461029b90611367565b80601f01602080910402602001604051908101604052809291908181526020018280546102c790611367565b80156103145780601f106102e957610100808354040283529160200191610314565b820191906000526020600020905b8154815290600101906020018083116102f757829003601f168201915b50505050509050919050565b336001600160a01b031660038260405161033a9190611230565b908152604051908190036020019020600101546001600160a01b0316146103ae5760405162461bcd60e51b815260206004820152602260248201527f596f7520617265206e6f7420506c61796572203220666f7220746869732067616044820152616d6560f01b6064820152608401610266565b60006003826040516103c09190611230565b9081526040519081900360200190206006015460ff1660028111156103f557634e487b7160e01b600052602160045260246000fd5b1461045f5760405162461bcd60e51b815260206004820152603460248201527f47616d65206e6f742073746172746564206f722068617320616c7265616479206044820152733132b2b7103830b93a34b1b4b830ba32b21034b760611b6064820152608401610266565b60006003826040516104719190611230565b908152602001604051809103902060020154905060026000336001600160a01b03166001600160a01b03168152602001908152602001600020548111156104fa5760405162461bcd60e51b815260206004820152601d60248201527f506c617965722066756e64732061726520696e73756666696369656e740000006044820152606401610266565b336000908152600260205260409020546105149082610f57565b3360009081526002602052604090819020919091555160019060039061053b908590611230565b908152604051908190036020019020600601805460ff1916600183600281111561057557634e487b7160e01b600052602160045260246000fd5b02179055505050565b600260005414156105d15760405162461bcd60e51b815260206004820152601f60248201527f5265656e7472616e637947756172643a207265656e7472616e742063616c6c006044820152606401610266565b600260008181553381526020919091526040902054806106205760405162461bcd60e51b815260206004820152600a6024820152694e6f2062616c616e636560b01b6044820152606401610266565b336000818152600260205260408082208290555190919083908381818185875af1925050503d8060008114610671576040519150601f19603f3d011682016040523d82523d6000602084013e610676565b606091505b50509050806106c75760405162461bcd60e51b815260206004820152601760248201527f7769746864726177206661696c656420746f2073656e640000000000000000006044820152606401610266565b50506001600055565b6001600160a01b038216158015906106f157506001600160a01b0382163314155b61073d5760405162461bcd60e51b815260206004820152601f60248201527f456e74657220612076616c6964206f70706f6e656e74206164646572657373006044820152606401610266565b3360009081526002602052604090205481111561079c5760405162461bcd60e51b815260206004820152601e60248201527f506c61796572732066756e64732061726520696e73756666696369656e7400006044820152606401610266565b336000908152600260205260409020546107b69082610f57565b3360009081526002602052604090819020919091555184906003906107dc908390611230565b90815260200160405180910390206003019080519060200190610800929190610f82565b50336003856040516108129190611230565b90815260405190819003602001812080546001600160a01b03939093166001600160a01b0319909316929092179091558290600390610852908790611230565b908152602001604051809103902060010160006101000a8154816001600160a01b0302191690836001600160a01b03160217905550806003856040516108989190611230565b90815260200160405180910390206002018190555060006003856040516108bf9190611230565b908152604051908190036020019020600601805460ff191660018360028111156108f957634e487b7160e01b600052602160045260246000fd5b02179055508260038560405161090f9190611230565b90815260200160405180910390206004019080519060200190610933929190610f82565b5050505050565b8051808201602090810180516003808352938301929094019190912092905281546001830154600284015492840180546001600160a01b039384169592909316939261098590611367565b80601f01602080910402602001604051908101604052809291908181526020018280546109b190611367565b80156109fe5780601f106109d3576101008083540402835291602001916109fe565b820191906000526020600020905b8154815290600101906020018083116109e157829003601f168201915b505050505090806004018054610a1390611367565b80601f0160208091040260200160405190810160405280929190818152602001828054610a3f90611367565b8015610a8c5780601f10610a6157610100808354040283529160200191610a8c565b820191906000526020600020905b815481529060010190602001808311610a6f57829003601f168201915b505050505090806005018054610aa190611367565b80601f0160208091040260200160405190810160405280929190818152602001828054610acd90611367565b8015610b1a5780601f10610aef57610100808354040283529160200191610b1a565b820191906000526020600020905b815481529060010190602001808311610afd57829003601f168201915b5050506006909301549192505060ff8082169161010090041688565b60003411610b9e5760405162461bcd60e51b815260206004820152602f60248201527f506c65617365204465706f73697420612076616c696420616d6f756e7420677260448201526e6561746572207468616e207a65726f60881b6064820152608401610266565b33600090815260026020526040902054610bb89034610f6a565b33600090815260026020526040902055565b6001600384604051610bdc9190611230565b9081526040519081900360200190206006015460ff166002811115610c1157634e487b7160e01b600052602160045260246000fd5b14610c6c5760405162461bcd60e51b815260206004820152602560248201527f4d6174636820646964206e6f742073746172746564206f7220696e76616c696460448201526420636f646560d81b6064820152608401610266565b6002600384604051610c7e9190611230565b908152604051908190036020019020600601805460ff19166001836002811115610cb857634e487b7160e01b600052602160045260246000fd5b021790555081600384604051610cce9190611230565b90815260200160405180910390206005019080519060200190610cf2929190610f82565b5080600384604051610d049190611230565b908152604051908190036020019020600601805461ff001916610100836002811115610d4057634e487b7160e01b600052602160045260246000fd5b02179055506000600384604051610d579190611230565b908152604051908190036020018120546001600160a01b03169150600090600390610d83908790611230565b908152604051908190036020018120600101546001600160a01b03169150600090600390610db2908890611230565b9081526040519081900360200190206002015490506000846002811115610de957634e487b7160e01b600052602160045260246000fd5b1415610e5f576001600160a01b038316600090815260026020526040902054610e129082610f6a565b6001600160a01b038085166000908152600260205260408082209390935590841681522054610e419082610f6a565b6001600160a01b038316600090815260026020526040902055610f4f565b6001846002811115610e8157634e487b7160e01b600052602160045260246000fd5b1415610ed9576000610e94826002610f76565b6001600160a01b038516600090815260026020526040902054909150610eba9082610f6a565b6001600160a01b03851660009081526002602052604090205550610f4f565b6002846002811115610efb57634e487b7160e01b600052602160045260246000fd5b1415610f4f576000610f0e826002610f76565b6001600160a01b038416600090815260026020526040902054909150610f349082610f6a565b6001600160a01b038416600090815260026020526040902055505b505050505050565b6000610f638284611320565b9392505050565b6000610f6382846112e9565b6000610f638284611301565b828054610f8e90611367565b90600052602060002090601f016020900481019282610fb05760008555610ff6565b82601f10610fc957805160ff1916838001178555610ff6565b82800160010185558215610ff6579182015b82811115610ff6578251825591602001919060010190610fdb565b50611002929150611006565b5090565b5b808211156110025760008155600101611007565b80356001600160a01b038116811461103257600080fd5b919050565b600082601f830112611047578081fd5b813567ffffffffffffffff80821115611062576110626113b8565b604051601f8301601f19908116603f0116810190828211818310171561108a5761108a6113b8565b816040528381528660208588010111156110a2578485fd5b8360208701602083013792830160200193909352509392505050565b6000602082840312156110cf578081fd5b610f638261101b565b6000602082840312156110e9578081fd5b813567ffffffffffffffff8111156110ff578182fd5b61110b84828501611037565b949350505050565b60008060008060808587031215611128578283fd5b843567ffffffffffffffff8082111561113f578485fd5b61114b88838901611037565b95506020870135915080821115611160578485fd5b5061116d87828801611037565b93505061117c6040860161101b565b9396929550929360600135925050565b6000806000606084860312156111a0578283fd5b833567ffffffffffffffff808211156111b7578485fd5b6111c387838801611037565b945060208601359150808211156111d8578384fd5b506111e586828701611037565b9250506040840135600381106111f9578182fd5b809150509250925092565b6000815180845261121c816020860160208601611337565b601f01601f19169290920160200192915050565b60008251611242818460208701611337565b9190910192915050565b6001600160a01b03898116825288166020820152604081018790526101006060820181905260009061128083820189611204565b905082810360808401526112948188611204565b905082810360a08401526112a88187611204565b9150506112b4846113ce565b8360c08301526112c3836113ce565b8260e08301529998505050505050505050565b602081526000610f636020830184611204565b600082198211156112fc576112fc6113a2565b500190565b600081600019048311821515161561131b5761131b6113a2565b500290565b600082821015611332576113326113a2565b500390565b60005b8381101561135257818101518382015260200161133a565b83811115611361576000848401525b50505050565b600181811c9082168061137b57607f821691505b6020821081141561139c57634e487b7160e01b600052602260045260246000fd5b50919050565b634e487b7160e01b600052601160045260246000fd5b634e487b7160e01b600052604160045260246000fd5b600381106113ec57634e487b7160e01b600052602160045260246000fd5b5056fea2646970667358221220780df9261cb8d4de33f9eba9877afe8a821e2a584e54aab9912af3092786ffe264736f6c63430008040033",
  "linkReferences": {},
  "deployedLinkReferences": {}
}