{
  "_format": "hh-sol-artifact-1",
  "contractName": "GameContract",
  "sourceName": "contracts/Game.sol",
  "abi": [
    {
      "anonymous": false,
      "inputs": [
        {
          "indexed": false,
          "internalType": "enum GameContract.GameOutcome",
          "name": "",
          "type": "uint8"
        }
      ],
      "name": "GetGameOutcome",
      "type": "event"
    },
    {
      "inputs": [],
      "name": "deposit",
      "outputs": [],
      "stateMutability": "payable",
      "type": "function"
    },
    {
      "inputs": [
        {
          "internalType": "string",
          "name": "gameCode",
          "type": "string"
        },
        {
          "internalType": "string",
          "name": "afterMatchDataURI",
          "type": "string"
        },
        {
          "internalType": "enum GameContract.GameOutcome",
          "name": "outcome",
          "type": "uint8"
        }
      ],
      "name": "endGame",
      "outputs": [],
      "stateMutability": "nonpayable",
      "type": "function"
    },
    {
      "inputs": [
        {
          "internalType": "string",
          "name": "",
          "type": "string"
        }
      ],
      "name": "games",
      "outputs": [
        {
          "internalType": "address",
          "name": "playerOne",
          "type": "address"
        },
        {
          "internalType": "address",
          "name": "playerTwo",
          "type": "address"
        },
        {
          "internalType": "uint256",
          "name": "stake",
          "type": "uint256"
        },
        {
          "internalType": "string",
          "name": "gameCode",
          "type": "string"
        },
        {
          "internalType": "string",
          "name": "beforeMatchDataURI",
          "type": "string"
        },
        {
          "internalType": "string",
          "name": "afterMatchDataURI",
          "type": "string"
        },
        {
          "internalType": "enum GameContract.GameStatus",
          "name": "status",
          "type": "uint8"
        },
        {
          "internalType": "enum GameContract.GameOutcome",
          "name": "outcome",
          "type": "uint8"
        }
      ],
      "stateMutability": "view",
      "type": "function"
    },
    {
      "inputs": [
        {
          "internalType": "string",
          "name": "gameCode",
          "type": "string"
        }
      ],
      "name": "getGameDetails",
      "outputs": [
        {
          "internalType": "string",
          "name": "URI",
          "type": "string"
        }
      ],
      "stateMutability": "view",
      "type": "function"
    },
    {
      "inputs": [
        {
          "internalType": "address",
          "name": "playerAddress",
          "type": "address"
        }
      ],
      "name": "getPlayerBalance",
      "outputs": [
        {
          "internalType": "uint256",
          "name": "playerBalance",
          "type": "uint256"
        }
      ],
      "stateMutability": "view",
      "type": "function"
    },
    {
      "inputs": [
        {
          "internalType": "string",
          "name": "gameCode",
          "type": "string"
        }
      ],
      "name": "participateGame",
      "outputs": [],
      "stateMutability": "nonpayable",
      "type": "function"
    },
    {
      "inputs": [
        {
          "internalType": "address",
          "name": "",
          "type": "address"
        }
      ],
      "name": "playerBalances",
      "outputs": [
        {
          "internalType": "uint256",
          "name": "",
          "type": "uint256"
        }
      ],
      "stateMutability": "view",
      "type": "function"
    },
    {
      "inputs": [
        {
          "internalType": "string",
          "name": "gameCode",
          "type": "string"
        },
        {
          "internalType": "string",
          "name": "beforeMatchDataURI",
          "type": "string"
        },
        {
          "internalType": "address",
          "name": "opponent",
          "type": "address"
        },
        {
          "internalType": "uint256",
          "name": "stake",
          "type": "uint256"
        }
      ],
      "name": "startGame",
      "outputs": [],
      "stateMutability": "nonpayable",
      "type": "function"
    },
    {
      "inputs": [],
      "name": "withdraw",
      "outputs": [],
      "stateMutability": "nonpayable",
      "type": "function"
    }
  ],
  "bytecode": "0x608060405234801561001057600080fd5b506001600055611199806100256000396000f3fe6080604052600436106100865760003560e01c80636d20931a116100595780636d20931a146101185780637b38314c1461014c578063d0e30db014610187578063de1b5b821461018f578063e2734c93146101af57600080fd5b80632ab9cc301461008b5780633b80e6ca146100c15780633ccfd60b146100e35780633e42bb33146100f8575b600080fd5b34801561009757600080fd5b506100ab6100a6366004610e14565b6101e5565b6040516100b89190611012565b60405180910390f35b3480156100cd57600080fd5b506100e16100dc366004610e14565b610209565b005b3480156100ef57600080fd5b506100e1610458565b34801561010457600080fd5b506100e1610113366004610e4f565b6105a9565b34801561012457600080fd5b50610138610133366004610e14565b610813565b6040516100b8989796959493929190610f88565b34801561015857600080fd5b50610179610167366004610dfa565b60036020526000908152604090205481565b6040519081526020016100b8565b6100e1610a0b565b34801561019b57600080fd5b506100e16101aa366004610ec8565b610a9f565b3480156101bb57600080fd5b506101796101ca366004610dfa565b6001600160a01b031660009081526003602052604090205490565b6060600060405180608001604052806057815260200161110d605791399392505050565b336001600160a01b03166004826040516102239190610f6c565b908152604051908190036020019020600101546001600160a01b03161461029c5760405162461bcd60e51b815260206004820152602260248201527f596f7520617265206e6f7420506c61796572203220666f7220746869732067616044820152616d6560f01b60648201526084015b60405180910390fd5b60006004826040516102ae9190610f6c565b9081526040519081900360200190206006015460ff1660028111156102e357634e487b7160e01b600052602160045260246000fd5b1461034d5760405162461bcd60e51b815260206004820152603460248201527f47616d65206e6f742073746172746564206f722068617320616c7265616479206044820152733132b2b7103830b93a34b1b4b830ba32b21034b760611b6064820152608401610293565b600060048260405161035f9190610f6c565b90815260408051602092819003830190206002015433600090815260039093529120549091508111156103d45760405162461bcd60e51b815260206004820152601d60248201527f506c617965722066756e64732061726520696e73756666696369656e740000006044820152606401610293565b336000908152600360205260409020546103ee9082610c9f565b33600090815260036020526040908190209190915551600190600490610415908590610f6c565b908152604051908190036020019020600601805460ff1916600183600281111561044f57634e487b7160e01b600052602160045260246000fd5b02179055505050565b600260005414156104ab5760405162461bcd60e51b815260206004820152601f60248201527f5265656e7472616e637947756172643a207265656e7472616e742063616c6c006044820152606401610293565b6002600090815533815260036020526040902054806104f95760405162461bcd60e51b815260206004820152600a6024820152694e6f2062616c616e636560b01b6044820152606401610293565b336000818152600360205260408082208290555190919083908381818185875af1925050503d806000811461054a576040519150601f19603f3d011682016040523d82523d6000602084013e61054f565b606091505b50509050806105a05760405162461bcd60e51b815260206004820152601760248201527f7769746864726177206661696c656420746f2073656e640000000000000000006044820152606401610293565b50506001600055565b6001600160a01b038216158015906105ca57506001600160a01b0382163314155b6106165760405162461bcd60e51b815260206004820152601f60248201527f456e74657220612076616c6964206f70706f6e656e74206164646572657373006044820152606401610293565b336000908152600360205260409020548111156106755760405162461bcd60e51b815260206004820152601e60248201527f506c61796572732066756e64732061726520696e73756666696369656e7400006044820152606401610293565b3360009081526003602052604090205461068f9082610c9f565b3360009081526003602052604090819020919091555184906004906106b5908390610f6c565b908152602001604051809103902060030190805190602001906106d9929190610cbe565b50336004856040516106eb9190610f6c565b90815260405190819003602001812080546001600160a01b03939093166001600160a01b031990931692909217909155829060049061072b908790610f6c565b908152602001604051809103902060010160006101000a8154816001600160a01b0302191690836001600160a01b03160217905550806004856040516107719190610f6c565b90815260200160405180910390206002018190555060006004856040516107989190610f6c565b908152604051908190036020019020600601805460ff191660018360028111156107d257634e487b7160e01b600052602160045260246000fd5b0217905550826004856040516107e89190610f6c565b9081526020016040518091039020600401908051906020019061080c929190610cbe565b5050505050565b805160208183018101805160048252928201919093012091528054600182015460028301546003840180546001600160a01b03948516959490931693919261085a90611084565b80601f016020809104026020016040519081016040528092919081815260200182805461088690611084565b80156108d35780601f106108a8576101008083540402835291602001916108d3565b820191906000526020600020905b8154815290600101906020018083116108b657829003601f168201915b5050505050908060040180546108e890611084565b80601f016020809104026020016040519081016040528092919081815260200182805461091490611084565b80156109615780601f1061093657610100808354040283529160200191610961565b820191906000526020600020905b81548152906001019060200180831161094457829003601f168201915b50505050509080600501805461097690611084565b80601f01602080910402602001604051908101604052809291908181526020018280546109a290611084565b80156109ef5780601f106109c4576101008083540402835291602001916109ef565b820191906000526020600020905b8154815290600101906020018083116109d257829003601f168201915b5050506006909301549192505060ff8082169161010090041688565b60003411610a735760405162461bcd60e51b815260206004820152602f60248201527f506c65617365204465706f73697420612076616c696420616d6f756e7420677260448201526e6561746572207468616e207a65726f60881b6064820152608401610293565b33600090815260036020526040902054610a8d9034610cb2565b33600090815260036020526040902055565b6001600484604051610ab19190610f6c565b9081526040519081900360200190206006015460ff166002811115610ae657634e487b7160e01b600052602160045260246000fd5b14610b415760405162461bcd60e51b815260206004820152602560248201527f4d6174636820646964206e6f742073746172746564206f7220696e76616c696460448201526420636f646560d81b6064820152608401610293565b336001600160a01b0316600484604051610b5b9190610f6c565b908152604051908190036020019020546001600160a01b031614610bc15760405162461bcd60e51b815260206004820152601d60248201527f4f6e6c7920506c61796572732063616e20656e64207468652067616d650000006044820152606401610293565b6002600484604051610bd39190610f6c565b908152604051908190036020019020600601805460ff19166001836002811115610c0d57634e487b7160e01b600052602160045260246000fd5b021790555081600484604051610c239190610f6c565b90815260200160405180910390206005019080519060200190610c47929190610cbe565b5080600484604051610c599190610f6c565b908152604051908190036020019020600601805461ff001916610100836002811115610c9557634e487b7160e01b600052602160045260246000fd5b0217905550505050565b6000610cab828461103d565b9392505050565b6000610cab8284611025565b828054610cca90611084565b90600052602060002090601f016020900481019282610cec5760008555610d32565b82601f10610d0557805160ff1916838001178555610d32565b82800160010185558215610d32579182015b82811115610d32578251825591602001919060010190610d17565b50610d3e929150610d42565b5090565b5b80821115610d3e5760008155600101610d43565b80356001600160a01b0381168114610d6e57600080fd5b919050565b600082601f830112610d83578081fd5b813567ffffffffffffffff80821115610d9e57610d9e6110d5565b604051601f8301601f19908116603f01168101908282118183101715610dc657610dc66110d5565b81604052838152866020858801011115610dde578485fd5b8360208701602083013792830160200193909352509392505050565b600060208284031215610e0b578081fd5b610cab82610d57565b600060208284031215610e25578081fd5b813567ffffffffffffffff811115610e3b578182fd5b610e4784828501610d73565b949350505050565b60008060008060808587031215610e64578283fd5b843567ffffffffffffffff80821115610e7b578485fd5b610e8788838901610d73565b95506020870135915080821115610e9c578485fd5b50610ea987828801610d73565b935050610eb860408601610d57565b9396929550929360600135925050565b600080600060608486031215610edc578283fd5b833567ffffffffffffffff80821115610ef3578485fd5b610eff87838801610d73565b94506020860135915080821115610f14578384fd5b50610f2186828701610d73565b925050604084013560038110610f35578182fd5b809150509250925092565b60008151808452610f58816020860160208601611054565b601f01601f19169290920160200192915050565b60008251610f7e818460208701611054565b9190910192915050565b6001600160a01b038981168252881660208201526040810187905261010060608201819052600090610fbc83820189610f40565b90508281036080840152610fd08188610f40565b905082810360a0840152610fe48187610f40565b915050610ff0846110eb565b8360c0830152610fff836110eb565b8260e08301529998505050505050505050565b602081526000610cab6020830184610f40565b60008219821115611038576110386110bf565b500190565b60008282101561104f5761104f6110bf565b500390565b60005b8381101561106f578181015183820152602001611057565b8381111561107e576000848401525b50505050565b600181811c9082168061109857607f821691505b602082108114156110b957634e487b7160e01b600052602260045260246000fd5b50919050565b634e487b7160e01b600052601160045260246000fd5b634e487b7160e01b600052604160045260246000fd5b6003811061110957634e487b7160e01b600052602160045260246000fd5b5056fe68747470733a2f2f697066732e696e667572612e696f2f697066732f626166796265696537713768696466677635667668686378377a366c786f78323765616b61717073683376376c6777346f70357169736668343734a2646970667358221220b5707caaf93559fd31c3baeabd558207f77461e81673f80c2827b2c5e6bea90e64736f6c63430008040033",
  "linkReferences": {},
  "deployedLinkReferences": {}
}