{
  "_format": "hh-sol-artifact-1",
  "contractName": "GameContract",
  "sourceName": "contracts/Game.sol",
  "abi": [
    {
      "anonymous": false,
      "inputs": [
        {
          "indexed": false,
          "internalType": "enum GameContract.GameOutcome",
          "name": "",
          "type": "uint8"
        }
      ],
      "name": "GetGameOutcome",
      "type": "event"
    },
    {
      "inputs": [],
      "name": "deposit",
      "outputs": [],
      "stateMutability": "payable",
      "type": "function"
    },
    {
      "inputs": [
        {
          "internalType": "string",
          "name": "gameCode",
          "type": "string"
        },
        {
          "internalType": "string",
          "name": "afterMatchDataURI",
          "type": "string"
        },
        {
          "internalType": "enum GameContract.GameOutcome",
          "name": "outcome",
          "type": "uint8"
        }
      ],
      "name": "endGame",
      "outputs": [],
      "stateMutability": "nonpayable",
      "type": "function"
    },
    {
      "inputs": [
        {
          "internalType": "string",
          "name": "",
          "type": "string"
        }
      ],
      "name": "games",
      "outputs": [
        {
          "internalType": "address",
          "name": "playerOne",
          "type": "address"
        },
        {
          "internalType": "address",
          "name": "playerTwo",
          "type": "address"
        },
        {
          "internalType": "uint256",
          "name": "stake",
          "type": "uint256"
        },
        {
          "internalType": "string",
          "name": "gameCode",
          "type": "string"
        },
        {
          "internalType": "string",
          "name": "beforeMatchDataURI",
          "type": "string"
        },
        {
          "internalType": "string",
          "name": "afterMatchDataURI",
          "type": "string"
        },
        {
          "internalType": "enum GameContract.GameStatus",
          "name": "status",
          "type": "uint8"
        },
        {
          "internalType": "enum GameContract.GameOutcome",
          "name": "outcome",
          "type": "uint8"
        }
      ],
      "stateMutability": "view",
      "type": "function"
    },
    {
      "inputs": [
        {
          "internalType": "address",
          "name": "playerAddress",
          "type": "address"
        }
      ],
      "name": "getPlayerBalance",
      "outputs": [
        {
          "internalType": "uint256",
          "name": "playerBalance",
          "type": "uint256"
        }
      ],
      "stateMutability": "view",
      "type": "function"
    },
    {
      "inputs": [
        {
          "internalType": "string",
          "name": "gameCode",
          "type": "string"
        }
      ],
      "name": "participateGame",
      "outputs": [],
      "stateMutability": "nonpayable",
      "type": "function"
    },
    {
      "inputs": [
        {
          "internalType": "address",
          "name": "",
          "type": "address"
        }
      ],
      "name": "playerBalances",
      "outputs": [
        {
          "internalType": "uint256",
          "name": "",
          "type": "uint256"
        }
      ],
      "stateMutability": "view",
      "type": "function"
    },
    {
      "inputs": [
        {
          "internalType": "string",
          "name": "gameCode",
          "type": "string"
        },
        {
          "internalType": "string",
          "name": "beforeMatchDataURI",
          "type": "string"
        },
        {
          "internalType": "address",
          "name": "opponent",
          "type": "address"
        },
        {
          "internalType": "uint256",
          "name": "stake",
          "type": "uint256"
        }
      ],
      "name": "startGame",
      "outputs": [],
      "stateMutability": "nonpayable",
      "type": "function"
    },
    {
      "inputs": [],
      "name": "withdraw",
      "outputs": [],
      "stateMutability": "nonpayable",
      "type": "function"
    }
  ],
  "bytecode": "0x608060405234801561001057600080fd5b5060016000556110d3806100256000396000f3fe60806040526004361061007b5760003560e01c80637b38314c1161004e5780637b38314c14610114578063d0e30db01461014f578063de1b5b8214610157578063e2734c931461017757600080fd5b80633b80e6ca146100805780633ccfd60b146100a25780633e42bb33146100b75780636d20931a146100d7575b600080fd5b34801561008c57600080fd5b506100a061009b366004610db8565b6101ad565b005b3480156100ae57600080fd5b506100a06103fc565b3480156100c357600080fd5b506100a06100d2366004610df3565b61054d565b3480156100e357600080fd5b506100f76100f2366004610db8565b6107b7565b60405161010b989796959493929190610f2c565b60405180910390f35b34801561012057600080fd5b5061014161012f366004610d9e565b60036020526000908152604090205481565b60405190815260200161010b565b6100a06109af565b34801561016357600080fd5b506100a0610172366004610e6c565b610a43565b34801561018357600080fd5b50610141610192366004610d9e565b6001600160a01b031660009081526003602052604090205490565b336001600160a01b03166004826040516101c79190610f10565b908152604051908190036020019020600101546001600160a01b0316146102405760405162461bcd60e51b815260206004820152602260248201527f596f7520617265206e6f7420506c61796572203220666f7220746869732067616044820152616d6560f01b60648201526084015b60405180910390fd5b60006004826040516102529190610f10565b9081526040519081900360200190206006015460ff16600281111561028757634e487b7160e01b600052602160045260246000fd5b146102f15760405162461bcd60e51b815260206004820152603460248201527f47616d65206e6f742073746172746564206f722068617320616c7265616479206044820152733132b2b7103830b93a34b1b4b830ba32b21034b760611b6064820152608401610237565b60006004826040516103039190610f10565b90815260408051602092819003830190206002015433600090815260039093529120549091508111156103785760405162461bcd60e51b815260206004820152601d60248201527f506c617965722066756e64732061726520696e73756666696369656e740000006044820152606401610237565b336000908152600360205260409020546103929082610c43565b336000908152600360205260409081902091909155516001906004906103b9908590610f10565b908152604051908190036020019020600601805460ff191660018360028111156103f357634e487b7160e01b600052602160045260246000fd5b02179055505050565b6002600054141561044f5760405162461bcd60e51b815260206004820152601f60248201527f5265656e7472616e637947756172643a207265656e7472616e742063616c6c006044820152606401610237565b60026000908155338152600360205260409020548061049d5760405162461bcd60e51b815260206004820152600a6024820152694e6f2062616c616e636560b01b6044820152606401610237565b336000818152600360205260408082208290555190919083908381818185875af1925050503d80600081146104ee576040519150601f19603f3d011682016040523d82523d6000602084013e6104f3565b606091505b50509050806105445760405162461bcd60e51b815260206004820152601760248201527f7769746864726177206661696c656420746f2073656e640000000000000000006044820152606401610237565b50506001600055565b6001600160a01b0382161580159061056e57506001600160a01b0382163314155b6105ba5760405162461bcd60e51b815260206004820152601f60248201527f456e74657220612076616c6964206f70706f6e656e74206164646572657373006044820152606401610237565b336000908152600360205260409020548111156106195760405162461bcd60e51b815260206004820152601e60248201527f506c61796572732066756e64732061726520696e73756666696369656e7400006044820152606401610237565b336000908152600360205260409020546106339082610c43565b336000908152600360205260409081902091909155518490600490610659908390610f10565b9081526020016040518091039020600301908051906020019061067d929190610c62565b503360048560405161068f9190610f10565b90815260405190819003602001812080546001600160a01b03939093166001600160a01b03199093169290921790915582906004906106cf908790610f10565b908152602001604051809103902060010160006101000a8154816001600160a01b0302191690836001600160a01b03160217905550806004856040516107159190610f10565b908152602001604051809103902060020181905550600060048560405161073c9190610f10565b908152604051908190036020019020600601805460ff1916600183600281111561077657634e487b7160e01b600052602160045260246000fd5b02179055508260048560405161078c9190610f10565b908152602001604051809103902060040190805190602001906107b0929190610c62565b5050505050565b805160208183018101805160048252928201919093012091528054600182015460028301546003840180546001600160a01b0394851695949093169391926107fe90611015565b80601f016020809104026020016040519081016040528092919081815260200182805461082a90611015565b80156108775780601f1061084c57610100808354040283529160200191610877565b820191906000526020600020905b81548152906001019060200180831161085a57829003601f168201915b50505050509080600401805461088c90611015565b80601f01602080910402602001604051908101604052809291908181526020018280546108b890611015565b80156109055780601f106108da57610100808354040283529160200191610905565b820191906000526020600020905b8154815290600101906020018083116108e857829003601f168201915b50505050509080600501805461091a90611015565b80601f016020809104026020016040519081016040528092919081815260200182805461094690611015565b80156109935780601f1061096857610100808354040283529160200191610993565b820191906000526020600020905b81548152906001019060200180831161097657829003601f168201915b5050506006909301549192505060ff8082169161010090041688565b60003411610a175760405162461bcd60e51b815260206004820152602f60248201527f506c65617365204465706f73697420612076616c696420616d6f756e7420677260448201526e6561746572207468616e207a65726f60881b6064820152608401610237565b33600090815260036020526040902054610a319034610c56565b33600090815260036020526040902055565b6001600484604051610a559190610f10565b9081526040519081900360200190206006015460ff166002811115610a8a57634e487b7160e01b600052602160045260246000fd5b14610ae55760405162461bcd60e51b815260206004820152602560248201527f4d6174636820646964206e6f742073746172746564206f7220696e76616c696460448201526420636f646560d81b6064820152608401610237565b336001600160a01b0316600484604051610aff9190610f10565b908152604051908190036020019020546001600160a01b031614610b655760405162461bcd60e51b815260206004820152601d60248201527f4f6e6c7920506c61796572732063616e20656e64207468652067616d650000006044820152606401610237565b6002600484604051610b779190610f10565b908152604051908190036020019020600601805460ff19166001836002811115610bb157634e487b7160e01b600052602160045260246000fd5b021790555081600484604051610bc79190610f10565b90815260200160405180910390206005019080519060200190610beb929190610c62565b5080600484604051610bfd9190610f10565b908152604051908190036020019020600601805461ff001916610100836002811115610c3957634e487b7160e01b600052602160045260246000fd5b0217905550505050565b6000610c4f8284610fce565b9392505050565b6000610c4f8284610fb6565b828054610c6e90611015565b90600052602060002090601f016020900481019282610c905760008555610cd6565b82601f10610ca957805160ff1916838001178555610cd6565b82800160010185558215610cd6579182015b82811115610cd6578251825591602001919060010190610cbb565b50610ce2929150610ce6565b5090565b5b80821115610ce25760008155600101610ce7565b80356001600160a01b0381168114610d1257600080fd5b919050565b600082601f830112610d27578081fd5b813567ffffffffffffffff80821115610d4257610d42611066565b604051601f8301601f19908116603f01168101908282118183101715610d6a57610d6a611066565b81604052838152866020858801011115610d82578485fd5b8360208701602083013792830160200193909352509392505050565b600060208284031215610daf578081fd5b610c4f82610cfb565b600060208284031215610dc9578081fd5b813567ffffffffffffffff811115610ddf578182fd5b610deb84828501610d17565b949350505050565b60008060008060808587031215610e08578283fd5b843567ffffffffffffffff80821115610e1f578485fd5b610e2b88838901610d17565b95506020870135915080821115610e40578485fd5b50610e4d87828801610d17565b935050610e5c60408601610cfb565b9396929550929360600135925050565b600080600060608486031215610e80578283fd5b833567ffffffffffffffff80821115610e97578485fd5b610ea387838801610d17565b94506020860135915080821115610eb8578384fd5b50610ec586828701610d17565b925050604084013560038110610ed9578182fd5b809150509250925092565b60008151808452610efc816020860160208601610fe5565b601f01601f19169290920160200192915050565b60008251610f22818460208701610fe5565b9190910192915050565b6001600160a01b038981168252881660208201526040810187905261010060608201819052600090610f6083820189610ee4565b90508281036080840152610f748188610ee4565b905082810360a0840152610f888187610ee4565b915050610f948461107c565b8360c0830152610fa38361107c565b8260e08301529998505050505050505050565b60008219821115610fc957610fc9611050565b500190565b600082821015610fe057610fe0611050565b500390565b60005b83811015611000578181015183820152602001610fe8565b8381111561100f576000848401525b50505050565b600181811c9082168061102957607f821691505b6020821081141561104a57634e487b7160e01b600052602260045260246000fd5b50919050565b634e487b7160e01b600052601160045260246000fd5b634e487b7160e01b600052604160045260246000fd5b6003811061109a57634e487b7160e01b600052602160045260246000fd5b5056fea264697066735822122019ef0ffdf117741d15bc2a0bae3bac25548995cc63c89cbcdfd518ee3edd1eb964736f6c63430008040033",
  "linkReferences": {},
  "deployedLinkReferences": {}
}