{
  "_format": "hh-sol-artifact-1",
  "contractName": "GameContract",
  "sourceName": "contracts/Game.sol",
  "abi": [
    {
      "anonymous": false,
      "inputs": [
        {
          "indexed": false,
          "internalType": "enum GameContract.GameOutcome",
          "name": "",
          "type": "uint8"
        }
      ],
      "name": "GetGameOutcome",
      "type": "event"
    },
    {
      "inputs": [],
      "name": "deposit",
      "outputs": [],
      "stateMutability": "payable",
      "type": "function"
    },
    {
      "inputs": [
        {
          "internalType": "string",
          "name": "gameCode",
          "type": "string"
        },
        {
          "internalType": "string",
          "name": "afterMatchDataURI",
          "type": "string"
        },
        {
          "internalType": "enum GameContract.GameOutcome",
          "name": "outcome",
          "type": "uint8"
        }
      ],
      "name": "endGame",
      "outputs": [],
      "stateMutability": "nonpayable",
      "type": "function"
    },
    {
      "inputs": [
        {
          "internalType": "string",
          "name": "",
          "type": "string"
        }
      ],
      "name": "games",
      "outputs": [
        {
          "internalType": "address",
          "name": "playerOne",
          "type": "address"
        },
        {
          "internalType": "address",
          "name": "playerTwo",
          "type": "address"
        },
        {
          "internalType": "uint256",
          "name": "stake",
          "type": "uint256"
        },
        {
          "internalType": "string",
          "name": "gameCode",
          "type": "string"
        },
        {
          "internalType": "string",
          "name": "beforeMatchDataURI",
          "type": "string"
        },
        {
          "internalType": "string",
          "name": "afterMatchDataURI",
          "type": "string"
        },
        {
          "internalType": "enum GameContract.GameStatus",
          "name": "status",
          "type": "uint8"
        },
        {
          "internalType": "enum GameContract.GameOutcome",
          "name": "outcome",
          "type": "uint8"
        }
      ],
      "stateMutability": "view",
      "type": "function"
    },
    {
      "inputs": [
        {
          "internalType": "address",
          "name": "playerAddress",
          "type": "address"
        }
      ],
      "name": "getPlayerBalance",
      "outputs": [
        {
          "internalType": "uint256",
          "name": "playerBalance",
          "type": "uint256"
        }
      ],
      "stateMutability": "view",
      "type": "function"
    },
    {
      "inputs": [
        {
          "internalType": "string",
          "name": "gameCode",
          "type": "string"
        }
      ],
      "name": "participateGame",
      "outputs": [],
      "stateMutability": "nonpayable",
      "type": "function"
    },
    {
      "inputs": [
        {
          "internalType": "address",
          "name": "",
          "type": "address"
        }
      ],
      "name": "playerBalances",
      "outputs": [
        {
          "internalType": "uint256",
          "name": "",
          "type": "uint256"
        }
      ],
      "stateMutability": "view",
      "type": "function"
    },
    {
      "inputs": [
        {
          "internalType": "string",
          "name": "gameCode",
          "type": "string"
        },
        {
          "internalType": "string",
          "name": "beforeMatchDataURI",
          "type": "string"
        },
        {
          "internalType": "address",
          "name": "opponent",
          "type": "address"
        },
        {
          "internalType": "uint256",
          "name": "stake",
          "type": "uint256"
        }
      ],
      "name": "startGame",
      "outputs": [],
      "stateMutability": "nonpayable",
      "type": "function"
    },
    {
      "inputs": [],
      "name": "withdraw",
      "outputs": [],
      "stateMutability": "nonpayable",
      "type": "function"
    }
  ],
  "bytecode": "0x608060405234801561001057600080fd5b50600160005561105e806100256000396000f3fe60806040526004361061007b5760003560e01c80637b38314c1161004e5780637b38314c14610114578063d0e30db01461014f578063de1b5b8214610157578063e2734c931461017757600080fd5b80633b80e6ca146100805780633ccfd60b146100a25780633e42bb33146100b75780636d20931a146100d7575b600080fd5b34801561008c57600080fd5b506100a061009b366004610d43565b6101ad565b005b3480156100ae57600080fd5b506100a0610410565b3480156100c357600080fd5b506100a06100d2366004610d7e565b610562565b3480156100e357600080fd5b506100f76100f2366004610d43565b61073e565b60405161010b989796959493929190610eb7565b60405180910390f35b34801561012057600080fd5b5061014161012f366004610d29565b60026020526000908152604090205481565b60405190815260200161010b565b6100a061093a565b34801561016357600080fd5b506100a0610172366004610df7565b6109ce565b34801561018357600080fd5b50610141610192366004610d29565b6001600160a01b031660009081526002602052604090205490565b336001600160a01b03166003826040516101c79190610e9b565b908152604051908190036020019020600101546001600160a01b0316146102405760405162461bcd60e51b815260206004820152602260248201527f596f7520617265206e6f7420506c61796572203220666f7220746869732067616044820152616d6560f01b60648201526084015b60405180910390fd5b60006003826040516102529190610e9b565b9081526040519081900360200190206006015460ff16600281111561028757634e487b7160e01b600052602160045260246000fd5b146102f15760405162461bcd60e51b815260206004820152603460248201527f47616d65206e6f742073746172746564206f722068617320616c7265616479206044820152733132b2b7103830b93a34b1b4b830ba32b21034b760611b6064820152608401610237565b60006003826040516103039190610e9b565b908152602001604051809103902060020154905060026000336001600160a01b03166001600160a01b031681526020019081526020016000205481111561038c5760405162461bcd60e51b815260206004820152601d60248201527f506c617965722066756e64732061726520696e73756666696369656e740000006044820152606401610237565b336000908152600260205260409020546103a69082610bce565b336000908152600260205260409081902091909155516001906003906103cd908590610e9b565b908152604051908190036020019020600601805460ff1916600183600281111561040757634e487b7160e01b600052602160045260246000fd5b02179055505050565b600260005414156104635760405162461bcd60e51b815260206004820152601f60248201527f5265656e7472616e637947756172643a207265656e7472616e742063616c6c006044820152606401610237565b600260008181553381526020919091526040902054806104b25760405162461bcd60e51b815260206004820152600a6024820152694e6f2062616c616e636560b01b6044820152606401610237565b336000818152600260205260408082208290555190919083908381818185875af1925050503d8060008114610503576040519150601f19603f3d011682016040523d82523d6000602084013e610508565b606091505b50509050806105595760405162461bcd60e51b815260206004820152601760248201527f7769746864726177206661696c656420746f2073656e640000000000000000006044820152606401610237565b50506001600055565b6001600160a01b0382161580159061058357506001600160a01b0382163314155b6105cf5760405162461bcd60e51b815260206004820152601f60248201527f456e74657220612076616c6964206f70706f6e656e74206164646572657373006044820152606401610237565b836003856040516105e09190610e9b565b90815260200160405180910390206003019080519060200190610604929190610bed565b50336003856040516106169190610e9b565b90815260405190819003602001812080546001600160a01b03939093166001600160a01b0319909316929092179091558290600390610656908790610e9b565b908152602001604051809103902060010160006101000a8154816001600160a01b0302191690836001600160a01b031602179055508060038560405161069c9190610e9b565b90815260200160405180910390206002018190555060006003856040516106c39190610e9b565b908152604051908190036020019020600601805460ff191660018360028111156106fd57634e487b7160e01b600052602160045260246000fd5b0217905550826003856040516107139190610e9b565b90815260200160405180910390206004019080519060200190610737929190610bed565b5050505050565b8051808201602090810180516003808352938301929094019190912092905281546001830154600284015492840180546001600160a01b039384169592909316939261078990610fa0565b80601f01602080910402602001604051908101604052809291908181526020018280546107b590610fa0565b80156108025780601f106107d757610100808354040283529160200191610802565b820191906000526020600020905b8154815290600101906020018083116107e557829003601f168201915b50505050509080600401805461081790610fa0565b80601f016020809104026020016040519081016040528092919081815260200182805461084390610fa0565b80156108905780601f1061086557610100808354040283529160200191610890565b820191906000526020600020905b81548152906001019060200180831161087357829003601f168201915b5050505050908060050180546108a590610fa0565b80601f01602080910402602001604051908101604052809291908181526020018280546108d190610fa0565b801561091e5780601f106108f35761010080835404028352916020019161091e565b820191906000526020600020905b81548152906001019060200180831161090157829003601f168201915b5050506006909301549192505060ff8082169161010090041688565b600034116109a25760405162461bcd60e51b815260206004820152602f60248201527f506c65617365204465706f73697420612076616c696420616d6f756e7420677260448201526e6561746572207468616e207a65726f60881b6064820152608401610237565b336000908152600260205260409020546109bc9034610be1565b33600090815260026020526040902055565b60016003846040516109e09190610e9b565b9081526040519081900360200190206006015460ff166002811115610a1557634e487b7160e01b600052602160045260246000fd5b14610a705760405162461bcd60e51b815260206004820152602560248201527f4d6174636820646964206e6f742073746172746564206f7220696e76616c696460448201526420636f646560d81b6064820152608401610237565b336001600160a01b0316600384604051610a8a9190610e9b565b908152604051908190036020019020546001600160a01b031614610af05760405162461bcd60e51b815260206004820152601d60248201527f4f6e6c7920506c61796572732063616e20656e64207468652067616d650000006044820152606401610237565b6002600384604051610b029190610e9b565b908152604051908190036020019020600601805460ff19166001836002811115610b3c57634e487b7160e01b600052602160045260246000fd5b021790555081600384604051610b529190610e9b565b90815260200160405180910390206005019080519060200190610b76929190610bed565b5080600384604051610b889190610e9b565b908152604051908190036020019020600601805461ff001916610100836002811115610bc457634e487b7160e01b600052602160045260246000fd5b0217905550505050565b6000610bda8284610f59565b9392505050565b6000610bda8284610f41565b828054610bf990610fa0565b90600052602060002090601f016020900481019282610c1b5760008555610c61565b82601f10610c3457805160ff1916838001178555610c61565b82800160010185558215610c61579182015b82811115610c61578251825591602001919060010190610c46565b50610c6d929150610c71565b5090565b5b80821115610c6d5760008155600101610c72565b80356001600160a01b0381168114610c9d57600080fd5b919050565b600082601f830112610cb2578081fd5b813567ffffffffffffffff80821115610ccd57610ccd610ff1565b604051601f8301601f19908116603f01168101908282118183101715610cf557610cf5610ff1565b81604052838152866020858801011115610d0d578485fd5b8360208701602083013792830160200193909352509392505050565b600060208284031215610d3a578081fd5b610bda82610c86565b600060208284031215610d54578081fd5b813567ffffffffffffffff811115610d6a578182fd5b610d7684828501610ca2565b949350505050565b60008060008060808587031215610d93578283fd5b843567ffffffffffffffff80821115610daa578485fd5b610db688838901610ca2565b95506020870135915080821115610dcb578485fd5b50610dd887828801610ca2565b935050610de760408601610c86565b9396929550929360600135925050565b600080600060608486031215610e0b578283fd5b833567ffffffffffffffff80821115610e22578485fd5b610e2e87838801610ca2565b94506020860135915080821115610e43578384fd5b50610e5086828701610ca2565b925050604084013560038110610e64578182fd5b809150509250925092565b60008151808452610e87816020860160208601610f70565b601f01601f19169290920160200192915050565b60008251610ead818460208701610f70565b9190910192915050565b6001600160a01b038981168252881660208201526040810187905261010060608201819052600090610eeb83820189610e6f565b90508281036080840152610eff8188610e6f565b905082810360a0840152610f138187610e6f565b915050610f1f84611007565b8360c0830152610f2e83611007565b8260e08301529998505050505050505050565b60008219821115610f5457610f54610fdb565b500190565b600082821015610f6b57610f6b610fdb565b500390565b60005b83811015610f8b578181015183820152602001610f73565b83811115610f9a576000848401525b50505050565b600181811c90821680610fb457607f821691505b60208210811415610fd557634e487b7160e01b600052602260045260246000fd5b50919050565b634e487b7160e01b600052601160045260246000fd5b634e487b7160e01b600052604160045260246000fd5b6003811061102557634e487b7160e01b600052602160045260246000fd5b5056fea26469706673582212202bd427cb3f1343e67ccb90cf592e6dfb6bc6c67cb47752fb0439757a03a4b1d764736f6c63430008040033",
  "linkReferences": {},
  "deployedLinkReferences": {}
}