{
  "_format": "hh-sol-artifact-1",
  "contractName": "MarketPlace",
  "sourceName": "contracts/Marketplace.sol",
  "abi": [
    {
      "inputs": [],
      "stateMutability": "nonpayable",
      "type": "constructor"
    },
    {
      "anonymous": false,
      "inputs": [
        {
          "indexed": true,
          "internalType": "uint256",
          "name": "itemId",
          "type": "uint256"
        },
        {
          "indexed": true,
          "internalType": "address",
          "name": "nftContract",
          "type": "address"
        },
        {
          "indexed": true,
          "internalType": "uint256",
          "name": "tokenId",
          "type": "uint256"
        },
        {
          "indexed": false,
          "internalType": "address",
          "name": "seller",
          "type": "address"
        },
        {
          "indexed": false,
          "internalType": "address",
          "name": "owner",
          "type": "address"
        },
        {
          "indexed": false,
          "internalType": "uint256",
          "name": "price",
          "type": "uint256"
        },
        {
          "indexed": false,
          "internalType": "bool",
          "name": "sold",
          "type": "bool"
        }
      ],
      "name": "MarketItemCreated",
      "type": "event"
    },
    {
      "anonymous": false,
      "inputs": [
        {
          "indexed": true,
          "internalType": "uint256",
          "name": "itemId",
          "type": "uint256"
        },
        {
          "indexed": false,
          "internalType": "address",
          "name": "owner",
          "type": "address"
        }
      ],
      "name": "MarketItemSold",
      "type": "event"
    },
    {
      "inputs": [
        {
          "internalType": "address",
          "name": "nftContract",
          "type": "address"
        },
        {
          "internalType": "uint256",
          "name": "tokenId",
          "type": "uint256"
        },
        {
          "internalType": "uint256",
          "name": "price",
          "type": "uint256"
        }
      ],
      "name": "createMarketItem",
      "outputs": [],
      "stateMutability": "payable",
      "type": "function"
    },
    {
      "inputs": [
        {
          "internalType": "address",
          "name": "nftContract",
          "type": "address"
        },
        {
          "internalType": "uint256",
          "name": "itemId",
          "type": "uint256"
        }
      ],
      "name": "createMarketSale",
      "outputs": [],
      "stateMutability": "payable",
      "type": "function"
    },
    {
      "inputs": [],
      "name": "fetchMarketItems",
      "outputs": [
        {
          "components": [
            {
              "internalType": "uint256",
              "name": "itemId",
              "type": "uint256"
            },
            {
              "internalType": "address",
              "name": "nftContract",
              "type": "address"
            },
            {
              "internalType": "uint256",
              "name": "tokenId",
              "type": "uint256"
            },
            {
              "internalType": "address payable",
              "name": "seller",
              "type": "address"
            },
            {
              "internalType": "address payable",
              "name": "owner",
              "type": "address"
            },
            {
              "internalType": "uint256",
              "name": "price",
              "type": "uint256"
            },
            {
              "internalType": "bool",
              "name": "sold",
              "type": "bool"
            }
          ],
          "internalType": "struct MarketPlace.MarketItem[]",
          "name": "",
          "type": "tuple[]"
        }
      ],
      "stateMutability": "view",
      "type": "function"
    },
    {
      "inputs": [],
      "name": "owner",
      "outputs": [
        {
          "internalType": "address",
          "name": "",
          "type": "address"
        }
      ],
      "stateMutability": "view",
      "type": "function"
    }
  ],
  "bytecode": "0x608060405234801561001057600080fd5b506001600055600380546001600160a01b03191633179055610900806100376000396000f3fe60806040526004361061003f5760003560e01c80630f08efe01461004457806358eb2df51461006f5780638da5cb5b14610084578063c23b139e146100bc575b600080fd5b34801561005057600080fd5b506100596100cf565b60405161006691906107d6565b60405180910390f35b61008261007d3660046107a4565b6102a3565b005b34801561009057600080fd5b506003546100a4906001600160a01b031681565b6040516001600160a01b039091168152602001610066565b6100826100ca36600461077b565b6104e2565b606060006100dc60015490565b905060006100e960025490565b6001546100f69190610882565b90506000808267ffffffffffffffff81111561012257634e487b7160e01b600052604160045260246000fd5b60405190808252806020026020018201604052801561018957816020015b6040805160e08101825260008082526020808301829052928201819052606082018190526080820181905260a0820181905260c082015282526000199092019101816101405790505b50905060005b8481101561029a5760006004816101a784600161086a565b81526020810191909152604001600020600401546001600160a01b031614156102885760006101d782600161086a565b600081815260046020818152604092839020835160e0810185528154815260018201546001600160a01b039081169382019390935260028201549481019490945260038101548216606085015291820154166080830152600581015460a0830152600681015460ff16151560c083015285519293509185908790811061026d57634e487b7160e01b600052603260045260246000fd5b602090810291909101015261028360018661086a565b945050505b8061029281610899565b91505061018f565b50949350505050565b600260005414156102fb5760405162461bcd60e51b815260206004820152601f60248201527f5265656e7472616e637947756172643a207265656e7472616e742063616c6c0060448201526064015b60405180910390fd5b60026000558061034d5760405162461bcd60e51b815260206004820152601c60248201527f5072696365206d7573742062652067726561746572207468616e20300000000060448201526064016102f2565b61035b600180546001019055565b600061036660015490565b6040805160e0810182528281526001600160a01b0387811660208084018281528486018a8152336060870181815260006080890181815260a08a018e815260c08b018381528d8452600498899052928c90209a518b55955160018b0180546001600160a01b0319908116928c16929092179055945160028b0155915160038a0180548616918a16919091179055905188860180549094169716969096179091559051600586015592516006909401805460ff19169415159490941790935592516323b872dd60e01b81529182015230602482015260448101869052919250906323b872dd90606401600060405180830381600087803b15801561046857600080fd5b505af115801561047c573d6000803e3d6000fd5b505060408051338152600060208201819052818301879052606082015290518693506001600160a01b038816925084917f045dfa01dcba2b36aba1d3dc4a874f4b0c5d2fbeb8d2c4b34a7d88c8d8f929d1919081900360800190a4505060016000555050565b600260005414156105355760405162461bcd60e51b815260206004820152601f60248201527f5265656e7472616e637947756172643a207265656e7472616e742063616c6c0060448201526064016102f2565b6002600081815582815260046020526040902060058101549181015460069091015460ff163483146105d1576040805162461bcd60e51b81526020600482015260248101919091527f506c65617365207375626d6974207468652061736b696e67207072696365206960448201527f6e206f7264657220746f20636f6d706c6574652074686520707572636861736560648201526084016102f2565b600181151514156106245760405162461bcd60e51b815260206004820152601e60248201527f546869732053616c652068617320616c726564792066696e6e6973686564000060448201526064016102f2565b60405133815284907f2073b2706c235effb1e3840575370a51749afd8181b4018f93bff955d50792cb9060200160405180910390a26000848152600460205260408082206003015490516001600160a01b03909116913480156108fc02929091818181858888f193505050501580156106a1573d6000803e3d6000fd5b506040516323b872dd60e01b8152306004820152336024820152604481018390526001600160a01b038616906323b872dd90606401600060405180830381600087803b1580156106f057600080fd5b505af1158015610704573d6000803e3d6000fd5b50505060008581526004602081905260409091200180546001600160a01b0319163317905550610738600280546001019055565b5050506000908152600460205260408120600601805460ff19166001908117909155905550565b80356001600160a01b038116811461077657600080fd5b919050565b6000806040838503121561078d578182fd5b6107968361075f565b946020939093013593505050565b6000806000606084860312156107b8578081fd5b6107c18461075f565b95602085013595506040909401359392505050565b602080825282518282018190526000919060409081850190868401855b8281101561085d57815180518552868101516001600160a01b039081168887015286820151878701526060808301518216908701526080808301519091169086015260a0808201519086015260c09081015115159085015260e090930192908501906001016107f3565b5091979650505050505050565b6000821982111561087d5761087d6108b4565b500190565b600082821015610894576108946108b4565b500390565b60006000198214156108ad576108ad6108b4565b5060010190565b634e487b7160e01b600052601160045260246000fdfea26469706673582212201b89693f3025a4967fbebaa0d46a5466905e01e65a510889df6cdf2be1ab404d64736f6c63430008040033",
  "linkReferences": {},
  "deployedLinkReferences": {}
}